{
	"data": {
		"bytecode": {
			"linkReferences": {},
			"object": "6080604052348015600e575f5ffd5b503360035f6101000a81548173ffffffffffffffffffffffffffffffffffffffff021916908373ffffffffffffffffffffffffffffffffffffffff160217905550611eee8061005c5f395ff3fe608060405260043610610101575f3560e01c80638da5cb5b11610094578063bacb5ebd11610063578063bacb5ebd14610331578063cfc9a5f81461035b578063ddd4259614610385578063e38f8448146103ad578063ed0b1f5f146103d557610108565b80638da5cb5b146102725780638dd2361c1461029c5780639886bcfa146102df5780639c4717491461030757610108565b8063754e150d116100d0578063754e150d146101a65780637ed4c5be146101e2578063891c07851461020c5780638aee578b1461023657610108565b806330cec0eb1461010c5780633ccfd60b1461014857806351f9efde1461015e57806374119a381461018857610108565b3661010857005b5f5ffd5b348015610117575f5ffd5b50610132600480360381019061012d91906114e5565b610411565b60405161013f91906115d0565b60405180910390f35b348015610153575f5ffd5b5061015c6104a4565b005b348015610169575f5ffd5b506101726105ff565b60405161017f91906115ff565b60405180910390f35b610190610604565b60405161019d91906115ff565b60405180910390f35b3480156101b1575f5ffd5b506101cc60048036038101906101c79190611642565b610888565b6040516101d99190611688565b60405180910390f35b3480156101ed575f5ffd5b506101f6610a36565b60405161020391906115ff565b60405180910390f35b348015610217575f5ffd5b50610220610a3b565b60405161022d91906115ff565b60405180910390f35b348015610241575f5ffd5b5061025c600480360381019061025791906116a1565b610a46565b60405161026991906115ff565b60405180910390f35b34801561027d575f5ffd5b50610286610a71565b60405161029391906116ee565b60405180910390f35b3480156102a7575f5ffd5b506102c260048036038101906102bd9190611642565b610a96565b6040516102d6989796959493929190611794565b60405180910390f35b3480156102ea575f5ffd5b5061030560048036038101906103009190611642565b610b2b565b005b348015610312575f5ffd5b5061031b610cde565b60405161032891906115ff565b60405180910390f35b34801561033c575f5ffd5b50610345610ce4565b6040516103529190611688565b60405180910390f35b348015610366575f5ffd5b5061036f610ce9565b60405161037c91906115ff565b60405180910390f35b348015610390575f5ffd5b506103ab60048036038101906103a69190611642565b610cf4565b005b3480156103b8575f5ffd5b506103d360048036038101906103ce9190611642565b610f34565b005b3480156103e0575f5ffd5b506103fb60048036038101906103f69190611642565b611221565b60405161040891906118ec565b60405180910390f35b606060015f8373ffffffffffffffffffffffffffffffffffffffff1673ffffffffffffffffffffffffffffffffffffffff1681526020019081526020015f2080548060200260200160405190810160405280929190818152602001828054801561049857602002820191905f5260205f20905b815481526020019060010190808311610484575b50505050509050919050565b60035f9054906101000a900473ffffffffffffffffffffffffffffffffffffffff1673ffffffffffffffffffffffffffffffffffffffff163373ffffffffffffffffffffffffffffffffffffffff1614610533576040517f08c379a000000000000000000000000000000000000000000000000000000000815260040161052a90611960565b60405180910390fd5b5f60035f9054906101000a900473ffffffffffffffffffffffffffffffffffffffff1673ffffffffffffffffffffffffffffffffffffffff1647604051610579906119ab565b5f6040518083038185875af1925050503d805f81146105b3576040519150601f19603f3d011682016040523d82523d5f602084013e6105b8565b606091505b50509050806105fc576040517f08c379a00000000000000000000000000000000000000000000000000000000081526004016105f390611a09565b60405180910390fd5b50565b603c81565b5f66038d7ea4c6800034101561064f576040517f08c379a000000000000000000000000000000000000000000000000000000000815260040161064690611a71565b60405180910390fd5b60025f81548092919061066190611abc565b91905055505f60025490506040518061010001604052808281526020013373ffffffffffffffffffffffffffffffffffffffff1681526020015f60038111156106ad576106ac611707565b5b8152602001428152602001428152602001606460ff1681526020016001151581526020015f15158152505f5f8381526020019081526020015f205f820151815f01556020820151816001015f6101000a81548173ffffffffffffffffffffffffffffffffffffffff021916908373ffffffffffffffffffffffffffffffffffffffff16021790555060408201518160010160146101000a81548160ff021916908360038111156107605761075f611707565b5b0217905550606082015181600201556080820151816003015560a0820151816004015f6101000a81548160ff021916908360ff16021790555060c08201518160040160016101000a81548160ff02191690831515021790555060e08201518160040160026101000a81548160ff02191690831515021790555090505060015f3373ffffffffffffffffffffffffffffffffffffffff1673ffffffffffffffffffffffffffffffffffffffff1681526020019081526020015f2081908060018154018082558091505060019003905f5260205f20015f9091909190915055803373ffffffffffffffffffffffffffffffffffffffff167f4f5b22082ac57121703b0b6c1203ef527cfbfa5069616fee6deb979d124adbf060405160405180910390a38091505090565b5f5f5f5f8481526020019081526020015f20604051806101000160405290815f8201548152602001600182015f9054906101000a900473ffffffffffffffffffffffffffffffffffffffff1673ffffffffffffffffffffffffffffffffffffffff1673ffffffffffffffffffffffffffffffffffffffff1681526020016001820160149054906101000a900460ff16600381111561092957610928611707565b5b600381111561093b5761093a611707565b5b81526020016002820154815260200160038201548152602001600482015f9054906101000a900460ff1660ff1660ff1681526020016004820160019054906101000a900460ff161515151581526020016004820160029054906101000a900460ff16151515158152505090508060c0015115806109b957508060e001515b156109c7575f915050610a31565b5f8160800151426109d89190611b03565b90505f601e826109e89190611b63565b90505f600260ff16826109fb9190611b93565b90508360a0015160ff168110610a17575f945050505050610a31565b808460a0015160ff16610a2a9190611b03565b9450505050505b919050565b601e81565b660aa87bee53800081565b6001602052815f5260405f208181548110610a5f575f80fd5b905f5260205f20015f91509150505481565b60035f9054906101000a900473ffffffffffffffffffffffffffffffffffffffff1681565b5f602052805f5260405f205f91509050805f015490806001015f9054906101000a900473ffffffffffffffffffffffffffffffffffffffff16908060010160149054906101000a900460ff1690806002015490806003015490806004015f9054906101000a900460ff16908060040160019054906101000a900460ff16908060040160029054906101000a900460ff16905088565b5f5f5f8381526020019081526020015f2090508060040160019054906101000a900460ff16610b8f576040517f08c379a0000000000000000000000000000000000000000000000000000000008152600401610b8690611c1e565b60405180910390fd5b3373ffffffffffffffffffffffffffffffffffffffff16816001015f9054906101000a900473ffffffffffffffffffffffffffffffffffffffff1673ffffffffffffffffffffffffffffffffffffffff1614610c20576040517f08c379a0000000000000000000000000000000000000000000000000000000008152600401610c1790611c86565b60405180910390fd5b8060040160029054906101000a900460ff1615610c72576040517f08c379a0000000000000000000000000000000000000000000000000000000008152600401610c6990611cee565b60405180910390fd5b6064816004015f6101000a81548160ff021916908360ff160217905550428160030181905550817fd4b742b9ba48fffa1f14267075a7793851770764117c423fd0a6550dfc8cb5746064604051610cc99190611d4e565b60405180910390a2610cda82610cf4565b5050565b60025481565b600281565b66038d7ea4c6800081565b5f5f5f8381526020019081526020015f2090508060040160019054906101000a900460ff16610d58576040517f08c379a0000000000000000000000000000000000000000000000000000000008152600401610d4f90611c1e565b60405180910390fd5b610d618261136a565b8060040160029054906101000a900460ff1615610d7e5750610f31565b5f816002015442610d8f9190611b03565b90505f8260010160149054906101000a900460ff169050603c6003610db49190611b93565b8210610dec5760038360010160146101000a81548160ff02191690836003811115610de257610de1611707565b5b0217905550610ea7565b603c6002610dfa9190611b93565b8210610e325760028360010160146101000a81548160ff02191690836003811115610e2857610e27611707565b5b0217905550610ea6565b603c6001610e409190611b93565b8210610e785760018360010160146101000a81548160ff02191690836003811115610e6e57610e6d611707565b5b0217905550610ea5565b5f8360010160146101000a81548160ff02191690836003811115610e9f57610e9e611707565b5b02179055505b5b5b806003811115610eba57610eb9611707565b5b8360010160149054906101000a900460ff166003811115610ede57610edd611707565b5b14610f2d57837f338b8976706f9da67298dddfa1ea4ff7d99cce68b9ca39c4f348994f8e2124a88460010160149054906101000a900460ff16604051610f249190611d67565b60405180910390a25b5050505b50565b5f5f5f8381526020019081526020015f2090508060040160019054906101000a900460ff16610f98576040517f08c379a0000000000000000000000000000000000000000000000000000000008152600401610f8f90611c1e565b60405180910390fd5b3373ffffffffffffffffffffffffffffffffffffffff16816001015f9054906101000a900473ffffffffffffffffffffffffffffffffffffffff1673ffffffffffffffffffffffffffffffffffffffff1614611029576040517f08c379a000000000000000000000000000000000000000000000000000000000815260040161102090611c86565b60405180910390fd5b8060040160029054906101000a900460ff161561107b576040517f08c379a000000000000000000000000000000000000000000000000000000000815260040161107290611dca565b60405180910390fd5b61108482610cf4565b60038081111561109757611096611707565b5b8160010160149054906101000a900460ff1660038111156110bb576110ba611707565b5b146110fb576040517f08c379a00000000000000000000000000000000000000000000000000000000081526004016110f290611e32565b60405180910390fd5b5f8160040160016101000a81548160ff0219169083151502179055503373ffffffffffffffffffffffffffffffffffffffff16827f79f2138ea100070ff95b59c265da7aa3c7a0f61595fe1bb2f5fda2762f398847660aa87bee53800060405161116591906115ff565b60405180910390a35f3373ffffffffffffffffffffffffffffffffffffffff16660aa87bee538000604051611199906119ab565b5f6040518083038185875af1925050503d805f81146111d3576040519150601f19603f3d011682016040523d82523d5f602084013e6111d8565b606091505b505090508061121c576040517f08c379a000000000000000000000000000000000000000000000000000000000815260040161121390611e9a565b60405180910390fd5b505050565b61122961141b565b5f5f5f8481526020019081526020015f20604051806101000160405290815f8201548152602001600182015f9054906101000a900473ffffffffffffffffffffffffffffffffffffffff1673ffffffffffffffffffffffffffffffffffffffff1673ffffffffffffffffffffffffffffffffffffffff1681526020016001820160149054906101000a900460ff1660038111156112c9576112c8611707565b5b60038111156112db576112da611707565b5b81526020016002820154815260200160038201548152602001600482015f9054906101000a900460ff1660ff1660ff1681526020016004820160019054906101000a900460ff161515151581526020016004820160029054906101000a900460ff161515151581525050905061135083610888565b8160a0019060ff16908160ff168152505080915050919050565b5f5f5f8381526020019081526020015f2090505f61138783610888565b905080826004015f6101000a81548160ff021916908360ff1602179055505f8160ff161480156113c657508160040160029054906101000a900460ff16155b156114165760018260040160026101000a81548160ff021916908315150217905550827fcc296a21951f3e57f21afb08547d835a0a9f0f06cc2867009cbe0cae44d36be960405160405180910390a25b505050565b6040518061010001604052805f81526020015f73ffffffffffffffffffffffffffffffffffffffff1681526020015f600381111561145c5761145b611707565b5b81526020015f81526020015f81526020015f60ff1681526020015f151581526020015f151581525090565b5f5ffd5b5f73ffffffffffffffffffffffffffffffffffffffff82169050919050565b5f6114b48261148b565b9050919050565b6114c4816114aa565b81146114ce575f5ffd5b50565b5f813590506114df816114bb565b92915050565b5f602082840312156114fa576114f9611487565b5b5f611507848285016114d1565b91505092915050565b5f81519050919050565b5f82825260208201905092915050565b5f819050602082019050919050565b5f819050919050565b61154b81611539565b82525050565b5f61155c8383611542565b60208301905092915050565b5f602082019050919050565b5f61157e82611510565b611588818561151a565b93506115938361152a565b805f5b838110156115c35781516115aa8882611551565b97506115b583611568565b925050600181019050611596565b5085935050505092915050565b5f6020820190508181035f8301526115e88184611574565b905092915050565b6115f981611539565b82525050565b5f6020820190506116125f8301846115f0565b92915050565b61162181611539565b811461162b575f5ffd5b50565b5f8135905061163c81611618565b92915050565b5f6020828403121561165757611656611487565b5b5f6116648482850161162e565b91505092915050565b5f60ff82169050919050565b6116828161166d565b82525050565b5f60208201905061169b5f830184611679565b92915050565b5f5f604083850312156116b7576116b6611487565b5b5f6116c4858286016114d1565b92505060206116d58582860161162e565b9150509250929050565b6116e8816114aa565b82525050565b5f6020820190506117015f8301846116df565b92915050565b7f4e487b71000000000000000000000000000000000000000000000000000000005f52602160045260245ffd5b6004811061174557611744611707565b5b50565b5f81905061175582611734565b919050565b5f61176482611748565b9050919050565b6117748161175a565b82525050565b5f8115159050919050565b61178e8161177a565b82525050565b5f610100820190506117a85f83018b6115f0565b6117b5602083018a6116df565b6117c2604083018961176b565b6117cf60608301886115f0565b6117dc60808301876115f0565b6117e960a0830186611679565b6117f660c0830185611785565b61180360e0830184611785565b9998505050505050505050565b611819816114aa565b82525050565b6118288161175a565b82525050565b6118378161166d565b82525050565b6118468161177a565b82525050565b61010082015f8201516118615f850182611542565b5060208201516118746020850182611810565b506040820151611887604085018261181f565b50606082015161189a6060850182611542565b5060808201516118ad6080850182611542565b5060a08201516118c060a085018261182e565b5060c08201516118d360c085018261183d565b5060e08201516118e660e085018261183d565b50505050565b5f610100820190506119005f83018461184c565b92915050565b5f82825260208201905092915050565b7f4f6e6c79206f776e6572000000000000000000000000000000000000000000005f82015250565b5f61194a600a83611906565b915061195582611916565b602082019050919050565b5f6020820190508181035f8301526119778161193e565b9050919050565b5f81905092915050565b50565b5f6119965f8361197e565b91506119a182611988565b5f82019050919050565b5f6119b58261198b565b9150819050919050565b7f5769746864726177206661696c656400000000000000000000000000000000005f82015250565b5f6119f3600f83611906565b91506119fe826119bf565b602082019050919050565b5f6020820190508181035f830152611a20816119e7565b9050919050565b7f4e65656420302e3030312045544820746f20706c616e740000000000000000005f82015250565b5f611a5b601783611906565b9150611a6682611a27565b602082019050919050565b5f6020820190508181035f830152611a8881611a4f565b9050919050565b7f4e487b71000000000000000000000000000000000000000000000000000000005f52601160045260245ffd5b5f611ac682611539565b91507fffffffffffffffffffffffffffffffffffffffffffffffffffffffffffffffff8203611af857611af7611a8f565b5b600182019050919050565b5f611b0d82611539565b9150611b1883611539565b9250828203905081811115611b3057611b2f611a8f565b5b92915050565b7f4e487b71000000000000000000000000000000000000000000000000000000005f52601260045260245ffd5b5f611b6d82611539565b9150611b7883611539565b925082611b8857611b87611b36565b5b828204905092915050565b5f611b9d82611539565b9150611ba883611539565b9250828202611bb681611539565b91508282048414831517611bcd57611bcc611a8f565b5b5092915050565b7f506c616e74206e6f7420666f756e6400000000000000000000000000000000005f82015250565b5f611c08600f83611906565b9150611c1382611bd4565b602082019050919050565b5f6020820190508181035f830152611c3581611bfc565b9050919050565b7f4e6f7420796f757220706c616e740000000000000000000000000000000000005f82015250565b5f611c70600e83611906565b9150611c7b82611c3c565b602082019050919050565b5f6020820190508181035f830152611c9d81611c64565b9050919050565b7f506c616e7420616c7265616479206465616400000000000000000000000000005f82015250565b5f611cd8601283611906565b9150611ce382611ca4565b602082019050919050565b5f6020820190508181035f830152611d0581611ccc565b9050919050565b5f819050919050565b5f819050919050565b5f611d38611d33611d2e84611d0c565b611d15565b61166d565b9050919050565b611d4881611d1e565b82525050565b5f602082019050611d615f830184611d3f565b92915050565b5f602082019050611d7a5f83018461176b565b92915050565b7f506c616e742069732064656164000000000000000000000000000000000000005f82015250565b5f611db4600d83611906565b9150611dbf82611d80565b602082019050919050565b5f6020820190508181035f830152611de181611da8565b9050919050565b7f4e6f7420726561647920746f20686172766573740000000000000000000000005f82015250565b5f611e1c601483611906565b9150611e2782611de8565b602082019050919050565b5f6020820190508181035f830152611e4981611e10565b9050919050565b7f526577617264207472616e73666572206661696c6564000000000000000000005f82015250565b5f611e84601683611906565b9150611e8f82611e50565b602082019050919050565b5f6020820190508181035f830152611eb181611e78565b905091905056fea2646970667358221220c248b5a40bfe48de8bfe93709cf9c1766ec6e941398433c6c82901ac71d1bf2c64736f6c634300081e0033",
			"opcodes": "PUSH1 0x80 PUSH1 0x40 MSTORE CALLVALUE DUP1 ISZERO PUSH1 0xE JUMPI PUSH0 PUSH0 REVERT JUMPDEST POP CALLER PUSH1 0x3 PUSH0 PUSH2 0x100 EXP DUP2 SLOAD DUP2 PUSH20 0xFFFFFFFFFFFFFFFFFFFFFFFFFFFFFFFFFFFFFFFF MUL NOT AND SWAP1 DUP4 PUSH20 0xFFFFFFFFFFFFFFFFFFFFFFFFFFFFFFFFFFFFFFFF AND MUL OR SWAP1 SSTORE POP PUSH2 0x1EEE DUP1 PUSH2 0x5C PUSH0 CODECOPY PUSH0 RETURN INVALID PUSH1 0x80 PUSH1 0x40 MSTORE PUSH1 0x4 CALLDATASIZE LT PUSH2 0x101 JUMPI PUSH0 CALLDATALOAD PUSH1 0xE0 SHR DUP1 PUSH4 0x8DA5CB5B GT PUSH2 0x94 JUMPI DUP1 PUSH4 0xBACB5EBD GT PUSH2 0x63 JUMPI DUP1 PUSH4 0xBACB5EBD EQ PUSH2 0x331 JUMPI DUP1 PUSH4 0xCFC9A5F8 EQ PUSH2 0x35B JUMPI DUP1 PUSH4 0xDDD42596 EQ PUSH2 0x385 JUMPI DUP1 PUSH4 0xE38F8448 EQ PUSH2 0x3AD JUMPI DUP1 PUSH4 0xED0B1F5F EQ PUSH2 0x3D5 JUMPI PUSH2 0x108 JUMP JUMPDEST DUP1 PUSH4 0x8DA5CB5B EQ PUSH2 0x272 JUMPI DUP1 PUSH4 0x8DD2361C EQ PUSH2 0x29C JUMPI DUP1 PUSH4 0x9886BCFA EQ PUSH2 0x2DF JUMPI DUP1 PUSH4 0x9C471749 EQ PUSH2 0x307 JUMPI PUSH2 0x108 JUMP JUMPDEST DUP1 PUSH4 0x754E150D GT PUSH2 0xD0 JUMPI DUP1 PUSH4 0x754E150D EQ PUSH2 0x1A6 JUMPI DUP1 PUSH4 0x7ED4C5BE EQ PUSH2 0x1E2 JUMPI DUP1 PUSH4 0x891C0785 EQ PUSH2 0x20C JUMPI DUP1 PUSH4 0x8AEE578B EQ PUSH2 0x236 JUMPI PUSH2 0x108 JUMP JUMPDEST DUP1 PUSH4 0x30CEC0EB EQ PUSH2 0x10C JUMPI DUP1 PUSH4 0x3CCFD60B EQ PUSH2 0x148 JUMPI DUP1 PUSH4 0x51F9EFDE EQ PUSH2 0x15E JUMPI DUP1 PUSH4 0x74119A38 EQ PUSH2 0x188 JUMPI PUSH2 0x108 JUMP JUMPDEST CALLDATASIZE PUSH2 0x108 JUMPI STOP JUMPDEST PUSH0 PUSH0 REVERT JUMPDEST CALLVALUE DUP1 ISZERO PUSH2 0x117 JUMPI PUSH0 PUSH0 REVERT JUMPDEST POP PUSH2 0x132 PUSH1 0x4 DUP1 CALLDATASIZE SUB DUP2 ADD SWAP1 PUSH2 0x12D SWAP2 SWAP1 PUSH2 0x14E5 JUMP JUMPDEST PUSH2 0x411 JUMP JUMPDEST PUSH1 0x40 MLOAD PUSH2 0x13F SWAP2 SWAP1 PUSH2 0x15D0 JUMP JUMPDEST PUSH1 0x40 MLOAD DUP1 SWAP2 SUB SWAP1 RETURN JUMPDEST CALLVALUE DUP1 ISZERO PUSH2 0x153 JUMPI PUSH0 PUSH0 REVERT JUMPDEST POP PUSH2 0x15C PUSH2 0x4A4 JUMP JUMPDEST STOP JUMPDEST CALLVALUE DUP1 ISZERO PUSH2 0x169 JUMPI PUSH0 PUSH0 REVERT JUMPDEST POP PUSH2 0x172 PUSH2 0x5FF JUMP JUMPDEST PUSH1 0x40 MLOAD PUSH2 0x17F SWAP2 SWAP1 PUSH2 0x15FF JUMP JUMPDEST PUSH1 0x40 MLOAD DUP1 SWAP2 SUB SWAP1 RETURN JUMPDEST PUSH2 0x190 PUSH2 0x604 JUMP JUMPDEST PUSH1 0x40 MLOAD PUSH2 0x19D SWAP2 SWAP1 PUSH2 0x15FF JUMP JUMPDEST PUSH1 0x40 MLOAD DUP1 SWAP2 SUB SWAP1 RETURN JUMPDEST CALLVALUE DUP1 ISZERO PUSH2 0x1B1 JUMPI PUSH0 PUSH0 REVERT JUMPDEST POP PUSH2 0x1CC PUSH1 0x4 DUP1 CALLDATASIZE SUB DUP2 ADD SWAP1 PUSH2 0x1C7 SWAP2 SWAP1 PUSH2 0x1642 JUMP JUMPDEST PUSH2 0x888 JUMP JUMPDEST PUSH1 0x40 MLOAD PUSH2 0x1D9 SWAP2 SWAP1 PUSH2 0x1688 JUMP JUMPDEST PUSH1 0x40 MLOAD DUP1 SWAP2 SUB SWAP1 RETURN JUMPDEST CALLVALUE DUP1 ISZERO PUSH2 0x1ED JUMPI PUSH0 PUSH0 REVERT JUMPDEST POP PUSH2 0x1F6 PUSH2 0xA36 JUMP JUMPDEST PUSH1 0x40 MLOAD PUSH2 0x203 SWAP2 SWAP1 PUSH2 0x15FF JUMP JUMPDEST PUSH1 0x40 MLOAD DUP1 SWAP2 SUB SWAP1 RETURN JUMPDEST CALLVALUE DUP1 ISZERO PUSH2 0x217 JUMPI PUSH0 PUSH0 REVERT JUMPDEST POP PUSH2 0x220 PUSH2 0xA3B JUMP JUMPDEST PUSH1 0x40 MLOAD PUSH2 0x22D SWAP2 SWAP1 PUSH2 0x15FF JUMP JUMPDEST PUSH1 0x40 MLOAD DUP1 SWAP2 SUB SWAP1 RETURN JUMPDEST CALLVALUE DUP1 ISZERO PUSH2 0x241 JUMPI PUSH0 PUSH0 REVERT JUMPDEST POP PUSH2 0x25C PUSH1 0x4 DUP1 CALLDATASIZE SUB DUP2 ADD SWAP1 PUSH2 0x257 SWAP2 SWAP1 PUSH2 0x16A1 JUMP JUMPDEST PUSH2 0xA46 JUMP JUMPDEST PUSH1 0x40 MLOAD PUSH2 0x269 SWAP2 SWAP1 PUSH2 0x15FF JUMP JUMPDEST PUSH1 0x40 MLOAD DUP1 SWAP2 SUB SWAP1 RETURN JUMPDEST CALLVALUE DUP1 ISZERO PUSH2 0x27D JUMPI PUSH0 PUSH0 REVERT JUMPDEST POP PUSH2 0x286 PUSH2 0xA71 JUMP JUMPDEST PUSH1 0x40 MLOAD PUSH2 0x293 SWAP2 SWAP1 PUSH2 0x16EE JUMP JUMPDEST PUSH1 0x40 MLOAD DUP1 SWAP2 SUB SWAP1 RETURN JUMPDEST CALLVALUE DUP1 ISZERO PUSH2 0x2A7 JUMPI PUSH0 PUSH0 REVERT JUMPDEST POP PUSH2 0x2C2 PUSH1 0x4 DUP1 CALLDATASIZE SUB DUP2 ADD SWAP1 PUSH2 0x2BD SWAP2 SWAP1 PUSH2 0x1642 JUMP JUMPDEST PUSH2 0xA96 JUMP JUMPDEST PUSH1 0x40 MLOAD PUSH2 0x2D6 SWAP9 SWAP8 SWAP7 SWAP6 SWAP5 SWAP4 SWAP3 SWAP2 SWAP1 PUSH2 0x1794 JUMP JUMPDEST PUSH1 0x40 MLOAD DUP1 SWAP2 SUB SWAP1 RETURN JUMPDEST CALLVALUE DUP1 ISZERO PUSH2 0x2EA JUMPI PUSH0 PUSH0 REVERT JUMPDEST POP PUSH2 0x305 PUSH1 0x4 DUP1 CALLDATASIZE SUB DUP2 ADD SWAP1 PUSH2 0x300 SWAP2 SWAP1 PUSH2 0x1642 JUMP JUMPDEST PUSH2 0xB2B JUMP JUMPDEST STOP JUMPDEST CALLVALUE DUP1 ISZERO PUSH2 0x312 JUMPI PUSH0 PUSH0 REVERT JUMPDEST POP PUSH2 0x31B PUSH2 0xCDE JUMP JUMPDEST PUSH1 0x40 MLOAD PUSH2 0x328 SWAP2 SWAP1 PUSH2 0x15FF JUMP JUMPDEST PUSH1 0x40 MLOAD DUP1 SWAP2 SUB SWAP1 RETURN JUMPDEST CALLVALUE DUP1 ISZERO PUSH2 0x33C JUMPI PUSH0 PUSH0 REVERT JUMPDEST POP PUSH2 0x345 PUSH2 0xCE4 JUMP JUMPDEST PUSH1 0x40 MLOAD PUSH2 0x352 SWAP2 SWAP1 PUSH2 0x1688 JUMP JUMPDEST PUSH1 0x40 MLOAD DUP1 SWAP2 SUB SWAP1 RETURN JUMPDEST CALLVALUE DUP1 ISZERO PUSH2 0x366 JUMPI PUSH0 PUSH0 REVERT JUMPDEST POP PUSH2 0x36F PUSH2 0xCE9 JUMP JUMPDEST PUSH1 0x40 MLOAD PUSH2 0x37C SWAP2 SWAP1 PUSH2 0x15FF JUMP JUMPDEST PUSH1 0x40 MLOAD DUP1 SWAP2 SUB SWAP1 RETURN JUMPDEST CALLVALUE DUP1 ISZERO PUSH2 0x390 JUMPI PUSH0 PUSH0 REVERT JUMPDEST POP PUSH2 0x3AB PUSH1 0x4 DUP1 CALLDATASIZE SUB DUP2 ADD SWAP1 PUSH2 0x3A6 SWAP2 SWAP1 PUSH2 0x1642 JUMP JUMPDEST PUSH2 0xCF4 JUMP JUMPDEST STOP JUMPDEST CALLVALUE DUP1 ISZERO PUSH2 0x3B8 JUMPI PUSH0 PUSH0 REVERT JUMPDEST POP PUSH2 0x3D3 PUSH1 0x4 DUP1 CALLDATASIZE SUB DUP2 ADD SWAP1 PUSH2 0x3CE SWAP2 SWAP1 PUSH2 0x1642 JUMP JUMPDEST PUSH2 0xF34 JUMP JUMPDEST STOP JUMPDEST CALLVALUE DUP1 ISZERO PUSH2 0x3E0 JUMPI PUSH0 PUSH0 REVERT JUMPDEST POP PUSH2 0x3FB PUSH1 0x4 DUP1 CALLDATASIZE SUB DUP2 ADD SWAP1 PUSH2 0x3F6 SWAP2 SWAP1 PUSH2 0x1642 JUMP JUMPDEST PUSH2 0x1221 JUMP JUMPDEST PUSH1 0x40 MLOAD PUSH2 0x408 SWAP2 SWAP1 PUSH2 0x18EC JUMP JUMPDEST PUSH1 0x40 MLOAD DUP1 SWAP2 SUB SWAP1 RETURN JUMPDEST PUSH1 0x60 PUSH1 0x1 PUSH0 DUP4 PUSH20 0xFFFFFFFFFFFFFFFFFFFFFFFFFFFFFFFFFFFFFFFF AND PUSH20 0xFFFFFFFFFFFFFFFFFFFFFFFFFFFFFFFFFFFFFFFF AND DUP2 MSTORE PUSH1 0x20 ADD SWAP1 DUP2 MSTORE PUSH1 0x20 ADD PUSH0 KECCAK256 DUP1 SLOAD DUP1 PUSH1 0x20 MUL PUSH1 0x20 ADD PUSH1 0x40 MLOAD SWAP1 DUP2 ADD PUSH1 0x40 MSTORE DUP1 SWAP3 SWAP2 SWAP1 DUP2 DUP2 MSTORE PUSH1 0x20 ADD DUP3 DUP1 SLOAD DUP1 ISZERO PUSH2 0x498 JUMPI PUSH1 0x20 MUL DUP3 ADD SWAP2 SWAP1 PUSH0 MSTORE PUSH1 0x20 PUSH0 KECCAK256 SWAP1 JUMPDEST DUP2 SLOAD DUP2 MSTORE PUSH1 0x20 ADD SWAP1 PUSH1 0x1 ADD SWAP1 DUP1 DUP4 GT PUSH2 0x484 JUMPI JUMPDEST POP POP POP POP POP SWAP1 POP SWAP2 SWAP1 POP JUMP JUMPDEST PUSH1 0x3 PUSH0 SWAP1 SLOAD SWAP1 PUSH2 0x100 EXP SWAP1 DIV PUSH20 0xFFFFFFFFFFFFFFFFFFFFFFFFFFFFFFFFFFFFFFFF AND PUSH20 0xFFFFFFFFFFFFFFFFFFFFFFFFFFFFFFFFFFFFFFFF AND CALLER PUSH20 0xFFFFFFFFFFFFFFFFFFFFFFFFFFFFFFFFFFFFFFFF AND EQ PUSH2 0x533 JUMPI PUSH1 0x40 MLOAD PUSH32 0x8C379A000000000000000000000000000000000000000000000000000000000 DUP2 MSTORE PUSH1 0x4 ADD PUSH2 0x52A SWAP1 PUSH2 0x1960 JUMP JUMPDEST PUSH1 0x40 MLOAD DUP1 SWAP2 SUB SWAP1 REVERT JUMPDEST PUSH0 PUSH1 0x3 PUSH0 SWAP1 SLOAD SWAP1 PUSH2 0x100 EXP SWAP1 DIV PUSH20 0xFFFFFFFFFFFFFFFFFFFFFFFFFFFFFFFFFFFFFFFF AND PUSH20 0xFFFFFFFFFFFFFFFFFFFFFFFFFFFFFFFFFFFFFFFF AND SELFBALANCE PUSH1 0x40 MLOAD PUSH2 0x579 SWAP1 PUSH2 0x19AB JUMP JUMPDEST PUSH0 PUSH1 0x40 MLOAD DUP1 DUP4 SUB DUP2 DUP6 DUP8 GAS CALL SWAP3 POP POP POP RETURNDATASIZE DUP1 PUSH0 DUP2 EQ PUSH2 0x5B3 JUMPI PUSH1 0x40 MLOAD SWAP2 POP PUSH1 0x1F NOT PUSH1 0x3F RETURNDATASIZE ADD AND DUP3 ADD PUSH1 0x40 MSTORE RETURNDATASIZE DUP3 MSTORE RETURNDATASIZE PUSH0 PUSH1 0x20 DUP5 ADD RETURNDATACOPY PUSH2 0x5B8 JUMP JUMPDEST PUSH1 0x60 SWAP2 POP JUMPDEST POP POP SWAP1 POP DUP1 PUSH2 0x5FC JUMPI PUSH1 0x40 MLOAD PUSH32 0x8C379A000000000000000000000000000000000000000000000000000000000 DUP2 MSTORE PUSH1 0x4 ADD PUSH2 0x5F3 SWAP1 PUSH2 0x1A09 JUMP JUMPDEST PUSH1 0x40 MLOAD DUP1 SWAP2 SUB SWAP1 REVERT JUMPDEST POP JUMP JUMPDEST PUSH1 0x3C DUP2 JUMP JUMPDEST PUSH0 PUSH7 0x38D7EA4C68000 CALLVALUE LT ISZERO PUSH2 0x64F JUMPI PUSH1 0x40 MLOAD PUSH32 0x8C379A000000000000000000000000000000000000000000000000000000000 DUP2 MSTORE PUSH1 0x4 ADD PUSH2 0x646 SWAP1 PUSH2 0x1A71 JUMP JUMPDEST PUSH1 0x40 MLOAD DUP1 SWAP2 SUB SWAP1 REVERT JUMPDEST PUSH1 0x2 PUSH0 DUP2 SLOAD DUP1 SWAP3 SWAP2 SWAP1 PUSH2 0x661 SWAP1 PUSH2 0x1ABC JUMP JUMPDEST SWAP2 SWAP1 POP SSTORE POP PUSH0 PUSH1 0x2 SLOAD SWAP1 POP PUSH1 0x40 MLOAD DUP1 PUSH2 0x100 ADD PUSH1 0x40 MSTORE DUP1 DUP3 DUP2 MSTORE PUSH1 0x20 ADD CALLER PUSH20 0xFFFFFFFFFFFFFFFFFFFFFFFFFFFFFFFFFFFFFFFF AND DUP2 MSTORE PUSH1 0x20 ADD PUSH0 PUSH1 0x3 DUP2 GT ISZERO PUSH2 0x6AD JUMPI PUSH2 0x6AC PUSH2 0x1707 JUMP JUMPDEST JUMPDEST DUP2 MSTORE PUSH1 0x20 ADD TIMESTAMP DUP2 MSTORE PUSH1 0x20 ADD TIMESTAMP DUP2 MSTORE PUSH1 0x20 ADD PUSH1 0x64 PUSH1 0xFF AND DUP2 MSTORE PUSH1 0x20 ADD PUSH1 0x1 ISZERO ISZERO DUP2 MSTORE PUSH1 0x20 ADD PUSH0 ISZERO ISZERO DUP2 MSTORE POP PUSH0 PUSH0 DUP4 DUP2 MSTORE PUSH1 0x20 ADD SWAP1 DUP2 MSTORE PUSH1 0x20 ADD PUSH0 KECCAK256 PUSH0 DUP3 ADD MLOAD DUP2 PUSH0 ADD SSTORE PUSH1 0x20 DUP3 ADD MLOAD DUP2 PUSH1 0x1 ADD PUSH0 PUSH2 0x100 EXP DUP2 SLOAD DUP2 PUSH20 0xFFFFFFFFFFFFFFFFFFFFFFFFFFFFFFFFFFFFFFFF MUL NOT AND SWAP1 DUP4 PUSH20 0xFFFFFFFFFFFFFFFFFFFFFFFFFFFFFFFFFFFFFFFF AND MUL OR SWAP1 SSTORE POP PUSH1 0x40 DUP3 ADD MLOAD DUP2 PUSH1 0x1 ADD PUSH1 0x14 PUSH2 0x100 EXP DUP2 SLOAD DUP2 PUSH1 0xFF MUL NOT AND SWAP1 DUP4 PUSH1 0x3 DUP2 GT ISZERO PUSH2 0x760 JUMPI PUSH2 0x75F PUSH2 0x1707 JUMP JUMPDEST JUMPDEST MUL OR SWAP1 SSTORE POP PUSH1 0x60 DUP3 ADD MLOAD DUP2 PUSH1 0x2 ADD SSTORE PUSH1 0x80 DUP3 ADD MLOAD DUP2 PUSH1 0x3 ADD SSTORE PUSH1 0xA0 DUP3 ADD MLOAD DUP2 PUSH1 0x4 ADD PUSH0 PUSH2 0x100 EXP DUP2 SLOAD DUP2 PUSH1 0xFF MUL NOT AND SWAP1 DUP4 PUSH1 0xFF AND MUL OR SWAP1 SSTORE POP PUSH1 0xC0 DUP3 ADD MLOAD DUP2 PUSH1 0x4 ADD PUSH1 0x1 PUSH2 0x100 EXP DUP2 SLOAD DUP2 PUSH1 0xFF MUL NOT AND SWAP1 DUP4 ISZERO ISZERO MUL OR SWAP1 SSTORE POP PUSH1 0xE0 DUP3 ADD MLOAD DUP2 PUSH1 0x4 ADD PUSH1 0x2 PUSH2 0x100 EXP DUP2 SLOAD DUP2 PUSH1 0xFF MUL NOT AND SWAP1 DUP4 ISZERO ISZERO MUL OR SWAP1 SSTORE POP SWAP1 POP POP PUSH1 0x1 PUSH0 CALLER PUSH20 0xFFFFFFFFFFFFFFFFFFFFFFFFFFFFFFFFFFFFFFFF AND PUSH20 0xFFFFFFFFFFFFFFFFFFFFFFFFFFFFFFFFFFFFFFFF AND DUP2 MSTORE PUSH1 0x20 ADD SWAP1 DUP2 MSTORE PUSH1 0x20 ADD PUSH0 KECCAK256 DUP2 SWAP1 DUP1 PUSH1 0x1 DUP2 SLOAD ADD DUP1 DUP3 SSTORE DUP1 SWAP2 POP POP PUSH1 0x1 SWAP1 SUB SWAP1 PUSH0 MSTORE PUSH1 0x20 PUSH0 KECCAK256 ADD PUSH0 SWAP1 SWAP2 SWAP1 SWAP2 SWAP1 SWAP2 POP SSTORE DUP1 CALLER PUSH20 0xFFFFFFFFFFFFFFFFFFFFFFFFFFFFFFFFFFFFFFFF AND PUSH32 0x4F5B22082AC57121703B0B6C1203EF527CFBFA5069616FEE6DEB979D124ADBF0 PUSH1 0x40 MLOAD PUSH1 0x40 MLOAD DUP1 SWAP2 SUB SWAP1 LOG3 DUP1 SWAP2 POP POP SWAP1 JUMP JUMPDEST PUSH0 PUSH0 PUSH0 PUSH0 DUP5 DUP2 MSTORE PUSH1 0x20 ADD SWAP1 DUP2 MSTORE PUSH1 0x20 ADD PUSH0 KECCAK256 PUSH1 0x40 MLOAD DUP1 PUSH2 0x100 ADD PUSH1 0x40 MSTORE SWAP1 DUP2 PUSH0 DUP3 ADD SLOAD DUP2 MSTORE PUSH1 0x20 ADD PUSH1 0x1 DUP3 ADD PUSH0 SWAP1 SLOAD SWAP1 PUSH2 0x100 EXP SWAP1 DIV PUSH20 0xFFFFFFFFFFFFFFFFFFFFFFFFFFFFFFFFFFFFFFFF AND PUSH20 0xFFFFFFFFFFFFFFFFFFFFFFFFFFFFFFFFFFFFFFFF AND PUSH20 0xFFFFFFFFFFFFFFFFFFFFFFFFFFFFFFFFFFFFFFFF AND DUP2 MSTORE PUSH1 0x20 ADD PUSH1 0x1 DUP3 ADD PUSH1 0x14 SWAP1 SLOAD SWAP1 PUSH2 0x100 EXP SWAP1 DIV PUSH1 0xFF AND PUSH1 0x3 DUP2 GT ISZERO PUSH2 0x929 JUMPI PUSH2 0x928 PUSH2 0x1707 JUMP JUMPDEST JUMPDEST PUSH1 0x3 DUP2 GT ISZERO PUSH2 0x93B JUMPI PUSH2 0x93A PUSH2 0x1707 JUMP JUMPDEST JUMPDEST DUP2 MSTORE PUSH1 0x20 ADD PUSH1 0x2 DUP3 ADD SLOAD DUP2 MSTORE PUSH1 0x20 ADD PUSH1 0x3 DUP3 ADD SLOAD DUP2 MSTORE PUSH1 0x20 ADD PUSH1 0x4 DUP3 ADD PUSH0 SWAP1 SLOAD SWAP1 PUSH2 0x100 EXP SWAP1 DIV PUSH1 0xFF AND PUSH1 0xFF AND PUSH1 0xFF AND DUP2 MSTORE PUSH1 0x20 ADD PUSH1 0x4 DUP3 ADD PUSH1 0x1 SWAP1 SLOAD SWAP1 PUSH2 0x100 EXP SWAP1 DIV PUSH1 0xFF AND ISZERO ISZERO ISZERO ISZERO DUP2 MSTORE PUSH1 0x20 ADD PUSH1 0x4 DUP3 ADD PUSH1 0x2 SWAP1 SLOAD SWAP1 PUSH2 0x100 EXP SWAP1 DIV PUSH1 0xFF AND ISZERO ISZERO ISZERO ISZERO DUP2 MSTORE POP POP SWAP1 POP DUP1 PUSH1 0xC0 ADD MLOAD ISZERO DUP1 PUSH2 0x9B9 JUMPI POP DUP1 PUSH1 0xE0 ADD MLOAD JUMPDEST ISZERO PUSH2 0x9C7 JUMPI PUSH0 SWAP2 POP POP PUSH2 0xA31 JUMP JUMPDEST PUSH0 DUP2 PUSH1 0x80 ADD MLOAD TIMESTAMP PUSH2 0x9D8 SWAP2 SWAP1 PUSH2 0x1B03 JUMP JUMPDEST SWAP1 POP PUSH0 PUSH1 0x1E DUP3 PUSH2 0x9E8 SWAP2 SWAP1 PUSH2 0x1B63 JUMP JUMPDEST SWAP1 POP PUSH0 PUSH1 0x2 PUSH1 0xFF AND DUP3 PUSH2 0x9FB SWAP2 SWAP1 PUSH2 0x1B93 JUMP JUMPDEST SWAP1 POP DUP4 PUSH1 0xA0 ADD MLOAD PUSH1 0xFF AND DUP2 LT PUSH2 0xA17 JUMPI PUSH0 SWAP5 POP POP POP POP POP PUSH2 0xA31 JUMP JUMPDEST DUP1 DUP5 PUSH1 0xA0 ADD MLOAD PUSH1 0xFF AND PUSH2 0xA2A SWAP2 SWAP1 PUSH2 0x1B03 JUMP JUMPDEST SWAP5 POP POP POP POP POP JUMPDEST SWAP2 SWAP1 POP JUMP JUMPDEST PUSH1 0x1E DUP2 JUMP JUMPDEST PUSH7 0xAA87BEE538000 DUP2 JUMP JUMPDEST PUSH1 0x1 PUSH1 0x20 MSTORE DUP2 PUSH0 MSTORE PUSH1 0x40 PUSH0 KECCAK256 DUP2 DUP2 SLOAD DUP2 LT PUSH2 0xA5F JUMPI PUSH0 DUP1 REVERT JUMPDEST SWAP1 PUSH0 MSTORE PUSH1 0x20 PUSH0 KECCAK256 ADD PUSH0 SWAP2 POP SWAP2 POP POP SLOAD DUP2 JUMP JUMPDEST PUSH1 0x3 PUSH0 SWAP1 SLOAD SWAP1 PUSH2 0x100 EXP SWAP1 DIV PUSH20 0xFFFFFFFFFFFFFFFFFFFFFFFFFFFFFFFFFFFFFFFF AND DUP2 JUMP JUMPDEST PUSH0 PUSH1 0x20 MSTORE DUP1 PUSH0 MSTORE PUSH1 0x40 PUSH0 KECCAK256 PUSH0 SWAP2 POP SWAP1 POP DUP1 PUSH0 ADD SLOAD SWAP1 DUP1 PUSH1 0x1 ADD PUSH0 SWAP1 SLOAD SWAP1 PUSH2 0x100 EXP SWAP1 DIV PUSH20 0xFFFFFFFFFFFFFFFFFFFFFFFFFFFFFFFFFFFFFFFF AND SWAP1 DUP1 PUSH1 0x1 ADD PUSH1 0x14 SWAP1 SLOAD SWAP1 PUSH2 0x100 EXP SWAP1 DIV PUSH1 0xFF AND SWAP1 DUP1 PUSH1 0x2 ADD SLOAD SWAP1 DUP1 PUSH1 0x3 ADD SLOAD SWAP1 DUP1 PUSH1 0x4 ADD PUSH0 SWAP1 SLOAD SWAP1 PUSH2 0x100 EXP SWAP1 DIV PUSH1 0xFF AND SWAP1 DUP1 PUSH1 0x4 ADD PUSH1 0x1 SWAP1 SLOAD SWAP1 PUSH2 0x100 EXP SWAP1 DIV PUSH1 0xFF AND SWAP1 DUP1 PUSH1 0x4 ADD PUSH1 0x2 SWAP1 SLOAD SWAP1 PUSH2 0x100 EXP SWAP1 DIV PUSH1 0xFF AND SWAP1 POP DUP9 JUMP JUMPDEST PUSH0 PUSH0 PUSH0 DUP4 DUP2 MSTORE PUSH1 0x20 ADD SWAP1 DUP2 MSTORE PUSH1 0x20 ADD PUSH0 KECCAK256 SWAP1 POP DUP1 PUSH1 0x4 ADD PUSH1 0x1 SWAP1 SLOAD SWAP1 PUSH2 0x100 EXP SWAP1 DIV PUSH1 0xFF AND PUSH2 0xB8F JUMPI PUSH1 0x40 MLOAD PUSH32 0x8C379A000000000000000000000000000000000000000000000000000000000 DUP2 MSTORE PUSH1 0x4 ADD PUSH2 0xB86 SWAP1 PUSH2 0x1C1E JUMP JUMPDEST PUSH1 0x40 MLOAD DUP1 SWAP2 SUB SWAP1 REVERT JUMPDEST CALLER PUSH20 0xFFFFFFFFFFFFFFFFFFFFFFFFFFFFFFFFFFFFFFFF AND DUP2 PUSH1 0x1 ADD PUSH0 SWAP1 SLOAD SWAP1 PUSH2 0x100 EXP SWAP1 DIV PUSH20 0xFFFFFFFFFFFFFFFFFFFFFFFFFFFFFFFFFFFFFFFF AND PUSH20 0xFFFFFFFFFFFFFFFFFFFFFFFFFFFFFFFFFFFFFFFF AND EQ PUSH2 0xC20 JUMPI PUSH1 0x40 MLOAD PUSH32 0x8C379A000000000000000000000000000000000000000000000000000000000 DUP2 MSTORE PUSH1 0x4 ADD PUSH2 0xC17 SWAP1 PUSH2 0x1C86 JUMP JUMPDEST PUSH1 0x40 MLOAD DUP1 SWAP2 SUB SWAP1 REVERT JUMPDEST DUP1 PUSH1 0x4 ADD PUSH1 0x2 SWAP1 SLOAD SWAP1 PUSH2 0x100 EXP SWAP1 DIV PUSH1 0xFF AND ISZERO PUSH2 0xC72 JUMPI PUSH1 0x40 MLOAD PUSH32 0x8C379A000000000000000000000000000000000000000000000000000000000 DUP2 MSTORE PUSH1 0x4 ADD PUSH2 0xC69 SWAP1 PUSH2 0x1CEE JUMP JUMPDEST PUSH1 0x40 MLOAD DUP1 SWAP2 SUB SWAP1 REVERT JUMPDEST PUSH1 0x64 DUP2 PUSH1 0x4 ADD PUSH0 PUSH2 0x100 EXP DUP2 SLOAD DUP2 PUSH1 0xFF MUL NOT AND SWAP1 DUP4 PUSH1 0xFF AND MUL OR SWAP1 SSTORE POP TIMESTAMP DUP2 PUSH1 0x3 ADD DUP2 SWAP1 SSTORE POP DUP2 PUSH32 0xD4B742B9BA48FFFA1F14267075A7793851770764117C423FD0A6550DFC8CB574 PUSH1 0x64 PUSH1 0x40 MLOAD PUSH2 0xCC9 SWAP2 SWAP1 PUSH2 0x1D4E JUMP JUMPDEST PUSH1 0x40 MLOAD DUP1 SWAP2 SUB SWAP1 LOG2 PUSH2 0xCDA DUP3 PUSH2 0xCF4 JUMP JUMPDEST POP POP JUMP JUMPDEST PUSH1 0x2 SLOAD DUP2 JUMP JUMPDEST PUSH1 0x2 DUP2 JUMP JUMPDEST PUSH7 0x38D7EA4C68000 DUP2 JUMP JUMPDEST PUSH0 PUSH0 PUSH0 DUP4 DUP2 MSTORE PUSH1 0x20 ADD SWAP1 DUP2 MSTORE PUSH1 0x20 ADD PUSH0 KECCAK256 SWAP1 POP DUP1 PUSH1 0x4 ADD PUSH1 0x1 SWAP1 SLOAD SWAP1 PUSH2 0x100 EXP SWAP1 DIV PUSH1 0xFF AND PUSH2 0xD58 JUMPI PUSH1 0x40 MLOAD PUSH32 0x8C379A000000000000000000000000000000000000000000000000000000000 DUP2 MSTORE PUSH1 0x4 ADD PUSH2 0xD4F SWAP1 PUSH2 0x1C1E JUMP JUMPDEST PUSH1 0x40 MLOAD DUP1 SWAP2 SUB SWAP1 REVERT JUMPDEST PUSH2 0xD61 DUP3 PUSH2 0x136A JUMP JUMPDEST DUP1 PUSH1 0x4 ADD PUSH1 0x2 SWAP1 SLOAD SWAP1 PUSH2 0x100 EXP SWAP1 DIV PUSH1 0xFF AND ISZERO PUSH2 0xD7E JUMPI POP PUSH2 0xF31 JUMP JUMPDEST PUSH0 DUP2 PUSH1 0x2 ADD SLOAD TIMESTAMP PUSH2 0xD8F SWAP2 SWAP1 PUSH2 0x1B03 JUMP JUMPDEST SWAP1 POP PUSH0 DUP3 PUSH1 0x1 ADD PUSH1 0x14 SWAP1 SLOAD SWAP1 PUSH2 0x100 EXP SWAP1 DIV PUSH1 0xFF AND SWAP1 POP PUSH1 0x3C PUSH1 0x3 PUSH2 0xDB4 SWAP2 SWAP1 PUSH2 0x1B93 JUMP JUMPDEST DUP3 LT PUSH2 0xDEC JUMPI PUSH1 0x3 DUP4 PUSH1 0x1 ADD PUSH1 0x14 PUSH2 0x100 EXP DUP2 SLOAD DUP2 PUSH1 0xFF MUL NOT AND SWAP1 DUP4 PUSH1 0x3 DUP2 GT ISZERO PUSH2 0xDE2 JUMPI PUSH2 0xDE1 PUSH2 0x1707 JUMP JUMPDEST JUMPDEST MUL OR SWAP1 SSTORE POP PUSH2 0xEA7 JUMP JUMPDEST PUSH1 0x3C PUSH1 0x2 PUSH2 0xDFA SWAP2 SWAP1 PUSH2 0x1B93 JUMP JUMPDEST DUP3 LT PUSH2 0xE32 JUMPI PUSH1 0x2 DUP4 PUSH1 0x1 ADD PUSH1 0x14 PUSH2 0x100 EXP DUP2 SLOAD DUP2 PUSH1 0xFF MUL NOT AND SWAP1 DUP4 PUSH1 0x3 DUP2 GT ISZERO PUSH2 0xE28 JUMPI PUSH2 0xE27 PUSH2 0x1707 JUMP JUMPDEST JUMPDEST MUL OR SWAP1 SSTORE POP PUSH2 0xEA6 JUMP JUMPDEST PUSH1 0x3C PUSH1 0x1 PUSH2 0xE40 SWAP2 SWAP1 PUSH2 0x1B93 JUMP JUMPDEST DUP3 LT PUSH2 0xE78 JUMPI PUSH1 0x1 DUP4 PUSH1 0x1 ADD PUSH1 0x14 PUSH2 0x100 EXP DUP2 SLOAD DUP2 PUSH1 0xFF MUL NOT AND SWAP1 DUP4 PUSH1 0x3 DUP2 GT ISZERO PUSH2 0xE6E JUMPI PUSH2 0xE6D PUSH2 0x1707 JUMP JUMPDEST JUMPDEST MUL OR SWAP1 SSTORE POP PUSH2 0xEA5 JUMP JUMPDEST PUSH0 DUP4 PUSH1 0x1 ADD PUSH1 0x14 PUSH2 0x100 EXP DUP2 SLOAD DUP2 PUSH1 0xFF MUL NOT AND SWAP1 DUP4 PUSH1 0x3 DUP2 GT ISZERO PUSH2 0xE9F JUMPI PUSH2 0xE9E PUSH2 0x1707 JUMP JUMPDEST JUMPDEST MUL OR SWAP1 SSTORE POP JUMPDEST JUMPDEST JUMPDEST DUP1 PUSH1 0x3 DUP2 GT ISZERO PUSH2 0xEBA JUMPI PUSH2 0xEB9 PUSH2 0x1707 JUMP JUMPDEST JUMPDEST DUP4 PUSH1 0x1 ADD PUSH1 0x14 SWAP1 SLOAD SWAP1 PUSH2 0x100 EXP SWAP1 DIV PUSH1 0xFF AND PUSH1 0x3 DUP2 GT ISZERO PUSH2 0xEDE JUMPI PUSH2 0xEDD PUSH2 0x1707 JUMP JUMPDEST JUMPDEST EQ PUSH2 0xF2D JUMPI DUP4 PUSH32 0x338B8976706F9DA67298DDDFA1EA4FF7D99CCE68B9CA39C4F348994F8E2124A8 DUP5 PUSH1 0x1 ADD PUSH1 0x14 SWAP1 SLOAD SWAP1 PUSH2 0x100 EXP SWAP1 DIV PUSH1 0xFF AND PUSH1 0x40 MLOAD PUSH2 0xF24 SWAP2 SWAP1 PUSH2 0x1D67 JUMP JUMPDEST PUSH1 0x40 MLOAD DUP1 SWAP2 SUB SWAP1 LOG2 JUMPDEST POP POP POP JUMPDEST POP JUMP JUMPDEST PUSH0 PUSH0 PUSH0 DUP4 DUP2 MSTORE PUSH1 0x20 ADD SWAP1 DUP2 MSTORE PUSH1 0x20 ADD PUSH0 KECCAK256 SWAP1 POP DUP1 PUSH1 0x4 ADD PUSH1 0x1 SWAP1 SLOAD SWAP1 PUSH2 0x100 EXP SWAP1 DIV PUSH1 0xFF AND PUSH2 0xF98 JUMPI PUSH1 0x40 MLOAD PUSH32 0x8C379A000000000000000000000000000000000000000000000000000000000 DUP2 MSTORE PUSH1 0x4 ADD PUSH2 0xF8F SWAP1 PUSH2 0x1C1E JUMP JUMPDEST PUSH1 0x40 MLOAD DUP1 SWAP2 SUB SWAP1 REVERT JUMPDEST CALLER PUSH20 0xFFFFFFFFFFFFFFFFFFFFFFFFFFFFFFFFFFFFFFFF AND DUP2 PUSH1 0x1 ADD PUSH0 SWAP1 SLOAD SWAP1 PUSH2 0x100 EXP SWAP1 DIV PUSH20 0xFFFFFFFFFFFFFFFFFFFFFFFFFFFFFFFFFFFFFFFF AND PUSH20 0xFFFFFFFFFFFFFFFFFFFFFFFFFFFFFFFFFFFFFFFF AND EQ PUSH2 0x1029 JUMPI PUSH1 0x40 MLOAD PUSH32 0x8C379A000000000000000000000000000000000000000000000000000000000 DUP2 MSTORE PUSH1 0x4 ADD PUSH2 0x1020 SWAP1 PUSH2 0x1C86 JUMP JUMPDEST PUSH1 0x40 MLOAD DUP1 SWAP2 SUB SWAP1 REVERT JUMPDEST DUP1 PUSH1 0x4 ADD PUSH1 0x2 SWAP1 SLOAD SWAP1 PUSH2 0x100 EXP SWAP1 DIV PUSH1 0xFF AND ISZERO PUSH2 0x107B JUMPI PUSH1 0x40 MLOAD PUSH32 0x8C379A000000000000000000000000000000000000000000000000000000000 DUP2 MSTORE PUSH1 0x4 ADD PUSH2 0x1072 SWAP1 PUSH2 0x1DCA JUMP JUMPDEST PUSH1 0x40 MLOAD DUP1 SWAP2 SUB SWAP1 REVERT JUMPDEST PUSH2 0x1084 DUP3 PUSH2 0xCF4 JUMP JUMPDEST PUSH1 0x3 DUP1 DUP2 GT ISZERO PUSH2 0x1097 JUMPI PUSH2 0x1096 PUSH2 0x1707 JUMP JUMPDEST JUMPDEST DUP2 PUSH1 0x1 ADD PUSH1 0x14 SWAP1 SLOAD SWAP1 PUSH2 0x100 EXP SWAP1 DIV PUSH1 0xFF AND PUSH1 0x3 DUP2 GT ISZERO PUSH2 0x10BB JUMPI PUSH2 0x10BA PUSH2 0x1707 JUMP JUMPDEST JUMPDEST EQ PUSH2 0x10FB JUMPI PUSH1 0x40 MLOAD PUSH32 0x8C379A000000000000000000000000000000000000000000000000000000000 DUP2 MSTORE PUSH1 0x4 ADD PUSH2 0x10F2 SWAP1 PUSH2 0x1E32 JUMP JUMPDEST PUSH1 0x40 MLOAD DUP1 SWAP2 SUB SWAP1 REVERT JUMPDEST PUSH0 DUP2 PUSH1 0x4 ADD PUSH1 0x1 PUSH2 0x100 EXP DUP2 SLOAD DUP2 PUSH1 0xFF MUL NOT AND SWAP1 DUP4 ISZERO ISZERO MUL OR SWAP1 SSTORE POP CALLER PUSH20 0xFFFFFFFFFFFFFFFFFFFFFFFFFFFFFFFFFFFFFFFF AND DUP3 PUSH32 0x79F2138EA100070FF95B59C265DA7AA3C7A0F61595FE1BB2F5FDA2762F398847 PUSH7 0xAA87BEE538000 PUSH1 0x40 MLOAD PUSH2 0x1165 SWAP2 SWAP1 PUSH2 0x15FF JUMP JUMPDEST PUSH1 0x40 MLOAD DUP1 SWAP2 SUB SWAP1 LOG3 PUSH0 CALLER PUSH20 0xFFFFFFFFFFFFFFFFFFFFFFFFFFFFFFFFFFFFFFFF AND PUSH7 0xAA87BEE538000 PUSH1 0x40 MLOAD PUSH2 0x1199 SWAP1 PUSH2 0x19AB JUMP JUMPDEST PUSH0 PUSH1 0x40 MLOAD DUP1 DUP4 SUB DUP2 DUP6 DUP8 GAS CALL SWAP3 POP POP POP RETURNDATASIZE DUP1 PUSH0 DUP2 EQ PUSH2 0x11D3 JUMPI PUSH1 0x40 MLOAD SWAP2 POP PUSH1 0x1F NOT PUSH1 0x3F RETURNDATASIZE ADD AND DUP3 ADD PUSH1 0x40 MSTORE RETURNDATASIZE DUP3 MSTORE RETURNDATASIZE PUSH0 PUSH1 0x20 DUP5 ADD RETURNDATACOPY PUSH2 0x11D8 JUMP JUMPDEST PUSH1 0x60 SWAP2 POP JUMPDEST POP POP SWAP1 POP DUP1 PUSH2 0x121C JUMPI PUSH1 0x40 MLOAD PUSH32 0x8C379A000000000000000000000000000000000000000000000000000000000 DUP2 MSTORE PUSH1 0x4 ADD PUSH2 0x1213 SWAP1 PUSH2 0x1E9A JUMP JUMPDEST PUSH1 0x40 MLOAD DUP1 SWAP2 SUB SWAP1 REVERT JUMPDEST POP POP POP JUMP JUMPDEST PUSH2 0x1229 PUSH2 0x141B JUMP JUMPDEST PUSH0 PUSH0 PUSH0 DUP5 DUP2 MSTORE PUSH1 0x20 ADD SWAP1 DUP2 MSTORE PUSH1 0x20 ADD PUSH0 KECCAK256 PUSH1 0x40 MLOAD DUP1 PUSH2 0x100 ADD PUSH1 0x40 MSTORE SWAP1 DUP2 PUSH0 DUP3 ADD SLOAD DUP2 MSTORE PUSH1 0x20 ADD PUSH1 0x1 DUP3 ADD PUSH0 SWAP1 SLOAD SWAP1 PUSH2 0x100 EXP SWAP1 DIV PUSH20 0xFFFFFFFFFFFFFFFFFFFFFFFFFFFFFFFFFFFFFFFF AND PUSH20 0xFFFFFFFFFFFFFFFFFFFFFFFFFFFFFFFFFFFFFFFF AND PUSH20 0xFFFFFFFFFFFFFFFFFFFFFFFFFFFFFFFFFFFFFFFF AND DUP2 MSTORE PUSH1 0x20 ADD PUSH1 0x1 DUP3 ADD PUSH1 0x14 SWAP1 SLOAD SWAP1 PUSH2 0x100 EXP SWAP1 DIV PUSH1 0xFF AND PUSH1 0x3 DUP2 GT ISZERO PUSH2 0x12C9 JUMPI PUSH2 0x12C8 PUSH2 0x1707 JUMP JUMPDEST JUMPDEST PUSH1 0x3 DUP2 GT ISZERO PUSH2 0x12DB JUMPI PUSH2 0x12DA PUSH2 0x1707 JUMP JUMPDEST JUMPDEST DUP2 MSTORE PUSH1 0x20 ADD PUSH1 0x2 DUP3 ADD SLOAD DUP2 MSTORE PUSH1 0x20 ADD PUSH1 0x3 DUP3 ADD SLOAD DUP2 MSTORE PUSH1 0x20 ADD PUSH1 0x4 DUP3 ADD PUSH0 SWAP1 SLOAD SWAP1 PUSH2 0x100 EXP SWAP1 DIV PUSH1 0xFF AND PUSH1 0xFF AND PUSH1 0xFF AND DUP2 MSTORE PUSH1 0x20 ADD PUSH1 0x4 DUP3 ADD PUSH1 0x1 SWAP1 SLOAD SWAP1 PUSH2 0x100 EXP SWAP1 DIV PUSH1 0xFF AND ISZERO ISZERO ISZERO ISZERO DUP2 MSTORE PUSH1 0x20 ADD PUSH1 0x4 DUP3 ADD PUSH1 0x2 SWAP1 SLOAD SWAP1 PUSH2 0x100 EXP SWAP1 DIV PUSH1 0xFF AND ISZERO ISZERO ISZERO ISZERO DUP2 MSTORE POP POP SWAP1 POP PUSH2 0x1350 DUP4 PUSH2 0x888 JUMP JUMPDEST DUP2 PUSH1 0xA0 ADD SWAP1 PUSH1 0xFF AND SWAP1 DUP2 PUSH1 0xFF AND DUP2 MSTORE POP POP DUP1 SWAP2 POP POP SWAP2 SWAP1 POP JUMP JUMPDEST PUSH0 PUSH0 PUSH0 DUP4 DUP2 MSTORE PUSH1 0x20 ADD SWAP1 DUP2 MSTORE PUSH1 0x20 ADD PUSH0 KECCAK256 SWAP1 POP PUSH0 PUSH2 0x1387 DUP4 PUSH2 0x888 JUMP JUMPDEST SWAP1 POP DUP1 DUP3 PUSH1 0x4 ADD PUSH0 PUSH2 0x100 EXP DUP2 SLOAD DUP2 PUSH1 0xFF MUL NOT AND SWAP1 DUP4 PUSH1 0xFF AND MUL OR SWAP1 SSTORE POP PUSH0 DUP2 PUSH1 0xFF AND EQ DUP1 ISZERO PUSH2 0x13C6 JUMPI POP DUP2 PUSH1 0x4 ADD PUSH1 0x2 SWAP1 SLOAD SWAP1 PUSH2 0x100 EXP SWAP1 DIV PUSH1 0xFF AND ISZERO JUMPDEST ISZERO PUSH2 0x1416 JUMPI PUSH1 0x1 DUP3 PUSH1 0x4 ADD PUSH1 0x2 PUSH2 0x100 EXP DUP2 SLOAD DUP2 PUSH1 0xFF MUL NOT AND SWAP1 DUP4 ISZERO ISZERO MUL OR SWAP1 SSTORE POP DUP3 PUSH32 0xCC296A21951F3E57F21AFB08547D835A0A9F0F06CC2867009CBE0CAE44D36BE9 PUSH1 0x40 MLOAD PUSH1 0x40 MLOAD DUP1 SWAP2 SUB SWAP1 LOG2 JUMPDEST POP POP POP JUMP JUMPDEST PUSH1 0x40 MLOAD DUP1 PUSH2 0x100 ADD PUSH1 0x40 MSTORE DUP1 PUSH0 DUP2 MSTORE PUSH1 0x20 ADD PUSH0 PUSH20 0xFFFFFFFFFFFFFFFFFFFFFFFFFFFFFFFFFFFFFFFF AND DUP2 MSTORE PUSH1 0x20 ADD PUSH0 PUSH1 0x3 DUP2 GT ISZERO PUSH2 0x145C JUMPI PUSH2 0x145B PUSH2 0x1707 JUMP JUMPDEST JUMPDEST DUP2 MSTORE PUSH1 0x20 ADD PUSH0 DUP2 MSTORE PUSH1 0x20 ADD PUSH0 DUP2 MSTORE PUSH1 0x20 ADD PUSH0 PUSH1 0xFF AND DUP2 MSTORE PUSH1 0x20 ADD PUSH0 ISZERO ISZERO DUP2 MSTORE PUSH1 0x20 ADD PUSH0 ISZERO ISZERO DUP2 MSTORE POP SWAP1 JUMP JUMPDEST PUSH0 PUSH0 REVERT JUMPDEST PUSH0 PUSH20 0xFFFFFFFFFFFFFFFFFFFFFFFFFFFFFFFFFFFFFFFF DUP3 AND SWAP1 POP SWAP2 SWAP1 POP JUMP JUMPDEST PUSH0 PUSH2 0x14B4 DUP3 PUSH2 0x148B JUMP JUMPDEST SWAP1 POP SWAP2 SWAP1 POP JUMP JUMPDEST PUSH2 0x14C4 DUP2 PUSH2 0x14AA JUMP JUMPDEST DUP2 EQ PUSH2 0x14CE JUMPI PUSH0 PUSH0 REVERT JUMPDEST POP JUMP JUMPDEST PUSH0 DUP2 CALLDATALOAD SWAP1 POP PUSH2 0x14DF DUP2 PUSH2 0x14BB JUMP JUMPDEST SWAP3 SWAP2 POP POP JUMP JUMPDEST PUSH0 PUSH1 0x20 DUP3 DUP5 SUB SLT ISZERO PUSH2 0x14FA JUMPI PUSH2 0x14F9 PUSH2 0x1487 JUMP JUMPDEST JUMPDEST PUSH0 PUSH2 0x1507 DUP5 DUP3 DUP6 ADD PUSH2 0x14D1 JUMP JUMPDEST SWAP2 POP POP SWAP3 SWAP2 POP POP JUMP JUMPDEST PUSH0 DUP2 MLOAD SWAP1 POP SWAP2 SWAP1 POP JUMP JUMPDEST PUSH0 DUP3 DUP3 MSTORE PUSH1 0x20 DUP3 ADD SWAP1 POP SWAP3 SWAP2 POP POP JUMP JUMPDEST PUSH0 DUP2 SWAP1 POP PUSH1 0x20 DUP3 ADD SWAP1 POP SWAP2 SWAP1 POP JUMP JUMPDEST PUSH0 DUP2 SWAP1 POP SWAP2 SWAP1 POP JUMP JUMPDEST PUSH2 0x154B DUP2 PUSH2 0x1539 JUMP JUMPDEST DUP3 MSTORE POP POP JUMP JUMPDEST PUSH0 PUSH2 0x155C DUP4 DUP4 PUSH2 0x1542 JUMP JUMPDEST PUSH1 0x20 DUP4 ADD SWAP1 POP SWAP3 SWAP2 POP POP JUMP JUMPDEST PUSH0 PUSH1 0x20 DUP3 ADD SWAP1 POP SWAP2 SWAP1 POP JUMP JUMPDEST PUSH0 PUSH2 0x157E DUP3 PUSH2 0x1510 JUMP JUMPDEST PUSH2 0x1588 DUP2 DUP6 PUSH2 0x151A JUMP JUMPDEST SWAP4 POP PUSH2 0x1593 DUP4 PUSH2 0x152A JUMP JUMPDEST DUP1 PUSH0 JUMPDEST DUP4 DUP2 LT ISZERO PUSH2 0x15C3 JUMPI DUP2 MLOAD PUSH2 0x15AA DUP9 DUP3 PUSH2 0x1551 JUMP JUMPDEST SWAP8 POP PUSH2 0x15B5 DUP4 PUSH2 0x1568 JUMP JUMPDEST SWAP3 POP POP PUSH1 0x1 DUP2 ADD SWAP1 POP PUSH2 0x1596 JUMP JUMPDEST POP DUP6 SWAP4 POP POP POP POP SWAP3 SWAP2 POP POP JUMP JUMPDEST PUSH0 PUSH1 0x20 DUP3 ADD SWAP1 POP DUP2 DUP2 SUB PUSH0 DUP4 ADD MSTORE PUSH2 0x15E8 DUP2 DUP5 PUSH2 0x1574 JUMP JUMPDEST SWAP1 POP SWAP3 SWAP2 POP POP JUMP JUMPDEST PUSH2 0x15F9 DUP2 PUSH2 0x1539 JUMP JUMPDEST DUP3 MSTORE POP POP JUMP JUMPDEST PUSH0 PUSH1 0x20 DUP3 ADD SWAP1 POP PUSH2 0x1612 PUSH0 DUP4 ADD DUP5 PUSH2 0x15F0 JUMP JUMPDEST SWAP3 SWAP2 POP POP JUMP JUMPDEST PUSH2 0x1621 DUP2 PUSH2 0x1539 JUMP JUMPDEST DUP2 EQ PUSH2 0x162B JUMPI PUSH0 PUSH0 REVERT JUMPDEST POP JUMP JUMPDEST PUSH0 DUP2 CALLDATALOAD SWAP1 POP PUSH2 0x163C DUP2 PUSH2 0x1618 JUMP JUMPDEST SWAP3 SWAP2 POP POP JUMP JUMPDEST PUSH0 PUSH1 0x20 DUP3 DUP5 SUB SLT ISZERO PUSH2 0x1657 JUMPI PUSH2 0x1656 PUSH2 0x1487 JUMP JUMPDEST JUMPDEST PUSH0 PUSH2 0x1664 DUP5 DUP3 DUP6 ADD PUSH2 0x162E JUMP JUMPDEST SWAP2 POP POP SWAP3 SWAP2 POP POP JUMP JUMPDEST PUSH0 PUSH1 0xFF DUP3 AND SWAP1 POP SWAP2 SWAP1 POP JUMP JUMPDEST PUSH2 0x1682 DUP2 PUSH2 0x166D JUMP JUMPDEST DUP3 MSTORE POP POP JUMP JUMPDEST PUSH0 PUSH1 0x20 DUP3 ADD SWAP1 POP PUSH2 0x169B PUSH0 DUP4 ADD DUP5 PUSH2 0x1679 JUMP JUMPDEST SWAP3 SWAP2 POP POP JUMP JUMPDEST PUSH0 PUSH0 PUSH1 0x40 DUP4 DUP6 SUB SLT ISZERO PUSH2 0x16B7 JUMPI PUSH2 0x16B6 PUSH2 0x1487 JUMP JUMPDEST JUMPDEST PUSH0 PUSH2 0x16C4 DUP6 DUP3 DUP7 ADD PUSH2 0x14D1 JUMP JUMPDEST SWAP3 POP POP PUSH1 0x20 PUSH2 0x16D5 DUP6 DUP3 DUP7 ADD PUSH2 0x162E JUMP JUMPDEST SWAP2 POP POP SWAP3 POP SWAP3 SWAP1 POP JUMP JUMPDEST PUSH2 0x16E8 DUP2 PUSH2 0x14AA JUMP JUMPDEST DUP3 MSTORE POP POP JUMP JUMPDEST PUSH0 PUSH1 0x20 DUP3 ADD SWAP1 POP PUSH2 0x1701 PUSH0 DUP4 ADD DUP5 PUSH2 0x16DF JUMP JUMPDEST SWAP3 SWAP2 POP POP JUMP JUMPDEST PUSH32 0x4E487B7100000000000000000000000000000000000000000000000000000000 PUSH0 MSTORE PUSH1 0x21 PUSH1 0x4 MSTORE PUSH1 0x24 PUSH0 REVERT JUMPDEST PUSH1 0x4 DUP2 LT PUSH2 0x1745 JUMPI PUSH2 0x1744 PUSH2 0x1707 JUMP JUMPDEST JUMPDEST POP JUMP JUMPDEST PUSH0 DUP2 SWAP1 POP PUSH2 0x1755 DUP3 PUSH2 0x1734 JUMP JUMPDEST SWAP2 SWAP1 POP JUMP JUMPDEST PUSH0 PUSH2 0x1764 DUP3 PUSH2 0x1748 JUMP JUMPDEST SWAP1 POP SWAP2 SWAP1 POP JUMP JUMPDEST PUSH2 0x1774 DUP2 PUSH2 0x175A JUMP JUMPDEST DUP3 MSTORE POP POP JUMP JUMPDEST PUSH0 DUP2 ISZERO ISZERO SWAP1 POP SWAP2 SWAP1 POP JUMP JUMPDEST PUSH2 0x178E DUP2 PUSH2 0x177A JUMP JUMPDEST DUP3 MSTORE POP POP JUMP JUMPDEST PUSH0 PUSH2 0x100 DUP3 ADD SWAP1 POP PUSH2 0x17A8 PUSH0 DUP4 ADD DUP12 PUSH2 0x15F0 JUMP JUMPDEST PUSH2 0x17B5 PUSH1 0x20 DUP4 ADD DUP11 PUSH2 0x16DF JUMP JUMPDEST PUSH2 0x17C2 PUSH1 0x40 DUP4 ADD DUP10 PUSH2 0x176B JUMP JUMPDEST PUSH2 0x17CF PUSH1 0x60 DUP4 ADD DUP9 PUSH2 0x15F0 JUMP JUMPDEST PUSH2 0x17DC PUSH1 0x80 DUP4 ADD DUP8 PUSH2 0x15F0 JUMP JUMPDEST PUSH2 0x17E9 PUSH1 0xA0 DUP4 ADD DUP7 PUSH2 0x1679 JUMP JUMPDEST PUSH2 0x17F6 PUSH1 0xC0 DUP4 ADD DUP6 PUSH2 0x1785 JUMP JUMPDEST PUSH2 0x1803 PUSH1 0xE0 DUP4 ADD DUP5 PUSH2 0x1785 JUMP JUMPDEST SWAP10 SWAP9 POP POP POP POP POP POP POP POP POP JUMP JUMPDEST PUSH2 0x1819 DUP2 PUSH2 0x14AA JUMP JUMPDEST DUP3 MSTORE POP POP JUMP JUMPDEST PUSH2 0x1828 DUP2 PUSH2 0x175A JUMP JUMPDEST DUP3 MSTORE POP POP JUMP JUMPDEST PUSH2 0x1837 DUP2 PUSH2 0x166D JUMP JUMPDEST DUP3 MSTORE POP POP JUMP JUMPDEST PUSH2 0x1846 DUP2 PUSH2 0x177A JUMP JUMPDEST DUP3 MSTORE POP POP JUMP JUMPDEST PUSH2 0x100 DUP3 ADD PUSH0 DUP3 ADD MLOAD PUSH2 0x1861 PUSH0 DUP6 ADD DUP3 PUSH2 0x1542 JUMP JUMPDEST POP PUSH1 0x20 DUP3 ADD MLOAD PUSH2 0x1874 PUSH1 0x20 DUP6 ADD DUP3 PUSH2 0x1810 JUMP JUMPDEST POP PUSH1 0x40 DUP3 ADD MLOAD PUSH2 0x1887 PUSH1 0x40 DUP6 ADD DUP3 PUSH2 0x181F JUMP JUMPDEST POP PUSH1 0x60 DUP3 ADD MLOAD PUSH2 0x189A PUSH1 0x60 DUP6 ADD DUP3 PUSH2 0x1542 JUMP JUMPDEST POP PUSH1 0x80 DUP3 ADD MLOAD PUSH2 0x18AD PUSH1 0x80 DUP6 ADD DUP3 PUSH2 0x1542 JUMP JUMPDEST POP PUSH1 0xA0 DUP3 ADD MLOAD PUSH2 0x18C0 PUSH1 0xA0 DUP6 ADD DUP3 PUSH2 0x182E JUMP JUMPDEST POP PUSH1 0xC0 DUP3 ADD MLOAD PUSH2 0x18D3 PUSH1 0xC0 DUP6 ADD DUP3 PUSH2 0x183D JUMP JUMPDEST POP PUSH1 0xE0 DUP3 ADD MLOAD PUSH2 0x18E6 PUSH1 0xE0 DUP6 ADD DUP3 PUSH2 0x183D JUMP JUMPDEST POP POP POP POP JUMP JUMPDEST PUSH0 PUSH2 0x100 DUP3 ADD SWAP1 POP PUSH2 0x1900 PUSH0 DUP4 ADD DUP5 PUSH2 0x184C JUMP JUMPDEST SWAP3 SWAP2 POP POP JUMP JUMPDEST PUSH0 DUP3 DUP3 MSTORE PUSH1 0x20 DUP3 ADD SWAP1 POP SWAP3 SWAP2 POP POP JUMP JUMPDEST PUSH32 0x4F6E6C79206F776E657200000000000000000000000000000000000000000000 PUSH0 DUP3 ADD MSTORE POP JUMP JUMPDEST PUSH0 PUSH2 0x194A PUSH1 0xA DUP4 PUSH2 0x1906 JUMP JUMPDEST SWAP2 POP PUSH2 0x1955 DUP3 PUSH2 0x1916 JUMP JUMPDEST PUSH1 0x20 DUP3 ADD SWAP1 POP SWAP2 SWAP1 POP JUMP JUMPDEST PUSH0 PUSH1 0x20 DUP3 ADD SWAP1 POP DUP2 DUP2 SUB PUSH0 DUP4 ADD MSTORE PUSH2 0x1977 DUP2 PUSH2 0x193E JUMP JUMPDEST SWAP1 POP SWAP2 SWAP1 POP JUMP JUMPDEST PUSH0 DUP2 SWAP1 POP SWAP3 SWAP2 POP POP JUMP JUMPDEST POP JUMP JUMPDEST PUSH0 PUSH2 0x1996 PUSH0 DUP4 PUSH2 0x197E JUMP JUMPDEST SWAP2 POP PUSH2 0x19A1 DUP3 PUSH2 0x1988 JUMP JUMPDEST PUSH0 DUP3 ADD SWAP1 POP SWAP2 SWAP1 POP JUMP JUMPDEST PUSH0 PUSH2 0x19B5 DUP3 PUSH2 0x198B JUMP JUMPDEST SWAP2 POP DUP2 SWAP1 POP SWAP2 SWAP1 POP JUMP JUMPDEST PUSH32 0x5769746864726177206661696C65640000000000000000000000000000000000 PUSH0 DUP3 ADD MSTORE POP JUMP JUMPDEST PUSH0 PUSH2 0x19F3 PUSH1 0xF DUP4 PUSH2 0x1906 JUMP JUMPDEST SWAP2 POP PUSH2 0x19FE DUP3 PUSH2 0x19BF JUMP JUMPDEST PUSH1 0x20 DUP3 ADD SWAP1 POP SWAP2 SWAP1 POP JUMP JUMPDEST PUSH0 PUSH1 0x20 DUP3 ADD SWAP1 POP DUP2 DUP2 SUB PUSH0 DUP4 ADD MSTORE PUSH2 0x1A20 DUP2 PUSH2 0x19E7 JUMP JUMPDEST SWAP1 POP SWAP2 SWAP1 POP JUMP JUMPDEST PUSH32 0x4E65656420302E3030312045544820746F20706C616E74000000000000000000 PUSH0 DUP3 ADD MSTORE POP JUMP JUMPDEST PUSH0 PUSH2 0x1A5B PUSH1 0x17 DUP4 PUSH2 0x1906 JUMP JUMPDEST SWAP2 POP PUSH2 0x1A66 DUP3 PUSH2 0x1A27 JUMP JUMPDEST PUSH1 0x20 DUP3 ADD SWAP1 POP SWAP2 SWAP1 POP JUMP JUMPDEST PUSH0 PUSH1 0x20 DUP3 ADD SWAP1 POP DUP2 DUP2 SUB PUSH0 DUP4 ADD MSTORE PUSH2 0x1A88 DUP2 PUSH2 0x1A4F JUMP JUMPDEST SWAP1 POP SWAP2 SWAP1 POP JUMP JUMPDEST PUSH32 0x4E487B7100000000000000000000000000000000000000000000000000000000 PUSH0 MSTORE PUSH1 0x11 PUSH1 0x4 MSTORE PUSH1 0x24 PUSH0 REVERT JUMPDEST PUSH0 PUSH2 0x1AC6 DUP3 PUSH2 0x1539 JUMP JUMPDEST SWAP2 POP PUSH32 0xFFFFFFFFFFFFFFFFFFFFFFFFFFFFFFFFFFFFFFFFFFFFFFFFFFFFFFFFFFFFFFFF DUP3 SUB PUSH2 0x1AF8 JUMPI PUSH2 0x1AF7 PUSH2 0x1A8F JUMP JUMPDEST JUMPDEST PUSH1 0x1 DUP3 ADD SWAP1 POP SWAP2 SWAP1 POP JUMP JUMPDEST PUSH0 PUSH2 0x1B0D DUP3 PUSH2 0x1539 JUMP JUMPDEST SWAP2 POP PUSH2 0x1B18 DUP4 PUSH2 0x1539 JUMP JUMPDEST SWAP3 POP DUP3 DUP3 SUB SWAP1 POP DUP2 DUP2 GT ISZERO PUSH2 0x1B30 JUMPI PUSH2 0x1B2F PUSH2 0x1A8F JUMP JUMPDEST JUMPDEST SWAP3 SWAP2 POP POP JUMP JUMPDEST PUSH32 0x4E487B7100000000000000000000000000000000000000000000000000000000 PUSH0 MSTORE PUSH1 0x12 PUSH1 0x4 MSTORE PUSH1 0x24 PUSH0 REVERT JUMPDEST PUSH0 PUSH2 0x1B6D DUP3 PUSH2 0x1539 JUMP JUMPDEST SWAP2 POP PUSH2 0x1B78 DUP4 PUSH2 0x1539 JUMP JUMPDEST SWAP3 POP DUP3 PUSH2 0x1B88 JUMPI PUSH2 0x1B87 PUSH2 0x1B36 JUMP JUMPDEST JUMPDEST DUP3 DUP3 DIV SWAP1 POP SWAP3 SWAP2 POP POP JUMP JUMPDEST PUSH0 PUSH2 0x1B9D DUP3 PUSH2 0x1539 JUMP JUMPDEST SWAP2 POP PUSH2 0x1BA8 DUP4 PUSH2 0x1539 JUMP JUMPDEST SWAP3 POP DUP3 DUP3 MUL PUSH2 0x1BB6 DUP2 PUSH2 0x1539 JUMP JUMPDEST SWAP2 POP DUP3 DUP3 DIV DUP5 EQ DUP4 ISZERO OR PUSH2 0x1BCD JUMPI PUSH2 0x1BCC PUSH2 0x1A8F JUMP JUMPDEST JUMPDEST POP SWAP3 SWAP2 POP POP JUMP JUMPDEST PUSH32 0x506C616E74206E6F7420666F756E640000000000000000000000000000000000 PUSH0 DUP3 ADD MSTORE POP JUMP JUMPDEST PUSH0 PUSH2 0x1C08 PUSH1 0xF DUP4 PUSH2 0x1906 JUMP JUMPDEST SWAP2 POP PUSH2 0x1C13 DUP3 PUSH2 0x1BD4 JUMP JUMPDEST PUSH1 0x20 DUP3 ADD SWAP1 POP SWAP2 SWAP1 POP JUMP JUMPDEST PUSH0 PUSH1 0x20 DUP3 ADD SWAP1 POP DUP2 DUP2 SUB PUSH0 DUP4 ADD MSTORE PUSH2 0x1C35 DUP2 PUSH2 0x1BFC JUMP JUMPDEST SWAP1 POP SWAP2 SWAP1 POP JUMP JUMPDEST PUSH32 0x4E6F7420796F757220706C616E74000000000000000000000000000000000000 PUSH0 DUP3 ADD MSTORE POP JUMP JUMPDEST PUSH0 PUSH2 0x1C70 PUSH1 0xE DUP4 PUSH2 0x1906 JUMP JUMPDEST SWAP2 POP PUSH2 0x1C7B DUP3 PUSH2 0x1C3C JUMP JUMPDEST PUSH1 0x20 DUP3 ADD SWAP1 POP SWAP2 SWAP1 POP JUMP JUMPDEST PUSH0 PUSH1 0x20 DUP3 ADD SWAP1 POP DUP2 DUP2 SUB PUSH0 DUP4 ADD MSTORE PUSH2 0x1C9D DUP2 PUSH2 0x1C64 JUMP JUMPDEST SWAP1 POP SWAP2 SWAP1 POP JUMP JUMPDEST PUSH32 0x506C616E7420616C726561647920646561640000000000000000000000000000 PUSH0 DUP3 ADD MSTORE POP JUMP JUMPDEST PUSH0 PUSH2 0x1CD8 PUSH1 0x12 DUP4 PUSH2 0x1906 JUMP JUMPDEST SWAP2 POP PUSH2 0x1CE3 DUP3 PUSH2 0x1CA4 JUMP JUMPDEST PUSH1 0x20 DUP3 ADD SWAP1 POP SWAP2 SWAP1 POP JUMP JUMPDEST PUSH0 PUSH1 0x20 DUP3 ADD SWAP1 POP DUP2 DUP2 SUB PUSH0 DUP4 ADD MSTORE PUSH2 0x1D05 DUP2 PUSH2 0x1CCC JUMP JUMPDEST SWAP1 POP SWAP2 SWAP1 POP JUMP JUMPDEST PUSH0 DUP2 SWAP1 POP SWAP2 SWAP1 POP JUMP JUMPDEST PUSH0 DUP2 SWAP1 POP SWAP2 SWAP1 POP JUMP JUMPDEST PUSH0 PUSH2 0x1D38 PUSH2 0x1D33 PUSH2 0x1D2E DUP5 PUSH2 0x1D0C JUMP JUMPDEST PUSH2 0x1D15 JUMP JUMPDEST PUSH2 0x166D JUMP JUMPDEST SWAP1 POP SWAP2 SWAP1 POP JUMP JUMPDEST PUSH2 0x1D48 DUP2 PUSH2 0x1D1E JUMP JUMPDEST DUP3 MSTORE POP POP JUMP JUMPDEST PUSH0 PUSH1 0x20 DUP3 ADD SWAP1 POP PUSH2 0x1D61 PUSH0 DUP4 ADD DUP5 PUSH2 0x1D3F JUMP JUMPDEST SWAP3 SWAP2 POP POP JUMP JUMPDEST PUSH0 PUSH1 0x20 DUP3 ADD SWAP1 POP PUSH2 0x1D7A PUSH0 DUP4 ADD DUP5 PUSH2 0x176B JUMP JUMPDEST SWAP3 SWAP2 POP POP JUMP JUMPDEST PUSH32 0x506C616E74206973206465616400000000000000000000000000000000000000 PUSH0 DUP3 ADD MSTORE POP JUMP JUMPDEST PUSH0 PUSH2 0x1DB4 PUSH1 0xD DUP4 PUSH2 0x1906 JUMP JUMPDEST SWAP2 POP PUSH2 0x1DBF DUP3 PUSH2 0x1D80 JUMP JUMPDEST PUSH1 0x20 DUP3 ADD SWAP1 POP SWAP2 SWAP1 POP JUMP JUMPDEST PUSH0 PUSH1 0x20 DUP3 ADD SWAP1 POP DUP2 DUP2 SUB PUSH0 DUP4 ADD MSTORE PUSH2 0x1DE1 DUP2 PUSH2 0x1DA8 JUMP JUMPDEST SWAP1 POP SWAP2 SWAP1 POP JUMP JUMPDEST PUSH32 0x4E6F7420726561647920746F2068617276657374000000000000000000000000 PUSH0 DUP3 ADD MSTORE POP JUMP JUMPDEST PUSH0 PUSH2 0x1E1C PUSH1 0x14 DUP4 PUSH2 0x1906 JUMP JUMPDEST SWAP2 POP PUSH2 0x1E27 DUP3 PUSH2 0x1DE8 JUMP JUMPDEST PUSH1 0x20 DUP3 ADD SWAP1 POP SWAP2 SWAP1 POP JUMP JUMPDEST PUSH0 PUSH1 0x20 DUP3 ADD SWAP1 POP DUP2 DUP2 SUB PUSH0 DUP4 ADD MSTORE PUSH2 0x1E49 DUP2 PUSH2 0x1E10 JUMP JUMPDEST SWAP1 POP SWAP2 SWAP1 POP JUMP JUMPDEST PUSH32 0x526577617264207472616E73666572206661696C656400000000000000000000 PUSH0 DUP3 ADD MSTORE POP JUMP JUMPDEST PUSH0 PUSH2 0x1E84 PUSH1 0x16 DUP4 PUSH2 0x1906 JUMP JUMPDEST SWAP2 POP PUSH2 0x1E8F DUP3 PUSH2 0x1E50 JUMP JUMPDEST PUSH1 0x20 DUP3 ADD SWAP1 POP SWAP2 SWAP1 POP JUMP JUMPDEST PUSH0 PUSH1 0x20 DUP3 ADD SWAP1 POP DUP2 DUP2 SUB PUSH0 DUP4 ADD MSTORE PUSH2 0x1EB1 DUP2 PUSH2 0x1E78 JUMP JUMPDEST SWAP1 POP SWAP2 SWAP1 POP JUMP INVALID LOG2 PUSH5 0x6970667358 0x22 SLT KECCAK256 0xC2 BASEFEE 0xB5 LOG4 SIGNEXTEND INVALID BASEFEE 0xDE DUP12 INVALID SWAP4 PUSH17 0x9CF9C1766EC6E941398433C6C82901AC71 DATALOADN 0xBF2C PUSH5 0x736F6C6343 STOP ADDMOD 0x1E STOP CALLER "
		},
		"gasEstimates": {
			"creation": {
				"codeDepositCost": "1583600",
				"executionCost": "25922",
				"totalCost": "1609522"
			},
			"external": {
				"HARVEST_REWARD()": "392",
				"PLANT_PRICE()": "369",
				"STAGE_DURATION()": "393",
				"WATER_DEPLETION_RATE()": "353",
				"WATER_DEPLETION_TIME()": "370",
				"calculateWaterLevel(uint256)": "infinite",
				"getPlant(uint256)": "infinite",
				"getUserPlants(address)": "infinite",
				"harvestPlant(uint256)": "infinite",
				"owner()": "2531",
				"plantCounter()": "2514",
				"plantSeed()": "infinite",
				"plants(uint256)": "infinite",
				"updatePlantStage(uint256)": "infinite",
				"userPlants(address,uint256)": "infinite",
				"waterPlant(uint256)": "infinite",
				"withdraw()": "infinite"
			},
			"internal": {
				"updateWaterLevel(uint256)": "infinite"
			}
		},
		"methodIdentifiers": {
			"HARVEST_REWARD()": "891c0785",
			"PLANT_PRICE()": "cfc9a5f8",
			"STAGE_DURATION()": "51f9efde",
			"WATER_DEPLETION_RATE()": "bacb5ebd",
			"WATER_DEPLETION_TIME()": "7ed4c5be",
			"calculateWaterLevel(uint256)": "754e150d",
			"getPlant(uint256)": "ed0b1f5f",
			"getUserPlants(address)": "30cec0eb",
			"harvestPlant(uint256)": "e38f8448",
			"owner()": "8da5cb5b",
			"plantCounter()": "9c471749",
			"plantSeed()": "74119a38",
			"plants(uint256)": "8dd2361c",
			"updatePlantStage(uint256)": "ddd42596",
			"userPlants(address,uint256)": "8aee578b",
			"waterPlant(uint256)": "9886bcfa",
			"withdraw()": "3ccfd60b"
		}
	},
	"abi": [
		{
			"inputs": [],
			"stateMutability": "nonpayable",
			"type": "constructor"
		},
		{
			"anonymous": false,
			"inputs": [
				{
					"indexed": true,
					"internalType": "uint256",
					"name": "plantId",
					"type": "uint256"
				}
			],
			"name": "PlantDied",
			"type": "event"
		},
		{
			"anonymous": false,
			"inputs": [
				{
					"indexed": true,
					"internalType": "uint256",
					"name": "plantId",
					"type": "uint256"
				},
				{
					"indexed": true,
					"internalType": "address",
					"name": "owner",
					"type": "address"
				},
				{
					"indexed": false,
					"internalType": "uint256",
					"name": "reward",
					"type": "uint256"
				}
			],
			"name": "PlantHarvested",
			"type": "event"
		},
		{
			"anonymous": false,
			"inputs": [
				{
					"indexed": true,
					"internalType": "address",
					"name": "owner",
					"type": "address"
				},
				{
					"indexed": true,
					"internalType": "uint256",
					"name": "plantId",
					"type": "uint256"
				}
			],
			"name": "PlantSeeded",
			"type": "event"
		},
		{
			"anonymous": false,
			"inputs": [
				{
					"indexed": true,
					"internalType": "uint256",
					"name": "plantId",
					"type": "uint256"
				},
				{
					"indexed": false,
					"internalType": "uint8",
					"name": "newWaterLevel",
					"type": "uint8"
				}
			],
			"name": "PlantWatered",
			"type": "event"
		},
		{
			"anonymous": false,
			"inputs": [
				{
					"indexed": true,
					"internalType": "uint256",
					"name": "plantId",
					"type": "uint256"
				},
				{
					"indexed": false,
					"internalType": "enum LiskGarden.GrowthStage",
					"name": "newStage",
					"type": "uint8"
				}
			],
			"name": "StageAdvanced",
			"type": "event"
		},
		{
			"inputs": [],
			"name": "HARVEST_REWARD",
			"outputs": [
				{
					"internalType": "uint256",
					"name": "",
					"type": "uint256"
				}
			],
			"stateMutability": "view",
			"type": "function"
		},
		{
			"inputs": [],
			"name": "PLANT_PRICE",
			"outputs": [
				{
					"internalType": "uint256",
					"name": "",
					"type": "uint256"
				}
			],
			"stateMutability": "view",
			"type": "function"
		},
		{
			"inputs": [],
			"name": "STAGE_DURATION",
			"outputs": [
				{
					"internalType": "uint256",
					"name": "",
					"type": "uint256"
				}
			],
			"stateMutability": "view",
			"type": "function"
		},
		{
			"inputs": [],
			"name": "WATER_DEPLETION_RATE",
			"outputs": [
				{
					"internalType": "uint8",
					"name": "",
					"type": "uint8"
				}
			],
			"stateMutability": "view",
			"type": "function"
		},
		{
			"inputs": [],
			"name": "WATER_DEPLETION_TIME",
			"outputs": [
				{
					"internalType": "uint256",
					"name": "",
					"type": "uint256"
				}
			],
			"stateMutability": "view",
			"type": "function"
		},
		{
			"inputs": [
				{
					"internalType": "uint256",
					"name": "plantId",
					"type": "uint256"
				}
			],
			"name": "calculateWaterLevel",
			"outputs": [
				{
					"internalType": "uint8",
					"name": "",
					"type": "uint8"
				}
			],
			"stateMutability": "view",
			"type": "function"
		},
		{
			"inputs": [
				{
					"internalType": "uint256",
					"name": "plantId",
					"type": "uint256"
				}
			],
			"name": "getPlant",
			"outputs": [
				{
					"components": [
						{
							"internalType": "uint256",
							"name": "id",
							"type": "uint256"
						},
						{
							"internalType": "address",
							"name": "owner",
							"type": "address"
						},
						{
							"internalType": "enum LiskGarden.GrowthStage",
							"name": "stage",
							"type": "uint8"
						},
						{
							"internalType": "uint256",
							"name": "plantedDate",
							"type": "uint256"
						},
						{
							"internalType": "uint256",
							"name": "lastWatered",
							"type": "uint256"
						},
						{
							"internalType": "uint8",
							"name": "waterLevel",
							"type": "uint8"
						},
						{
							"internalType": "bool",
							"name": "exists",
							"type": "bool"
						},
						{
							"internalType": "bool",
							"name": "isDead",
							"type": "bool"
						}
					],
					"internalType": "struct LiskGarden.Plant",
					"name": "",
					"type": "tuple"
				}
			],
			"stateMutability": "view",
			"type": "function"
		},
		{
			"inputs": [
				{
					"internalType": "address",
					"name": "user",
					"type": "address"
				}
			],
			"name": "getUserPlants",
			"outputs": [
				{
					"internalType": "uint256[]",
					"name": "",
					"type": "uint256[]"
				}
			],
			"stateMutability": "view",
			"type": "function"
		},
		{
			"inputs": [
				{
					"internalType": "uint256",
					"name": "plantId",
					"type": "uint256"
				}
			],
			"name": "harvestPlant",
			"outputs": [],
			"stateMutability": "nonpayable",
			"type": "function"
		},
		{
			"inputs": [],
			"name": "owner",
			"outputs": [
				{
					"internalType": "address",
					"name": "",
					"type": "address"
				}
			],
			"stateMutability": "view",
			"type": "function"
		},
		{
			"inputs": [],
			"name": "plantCounter",
			"outputs": [
				{
					"internalType": "uint256",
					"name": "",
					"type": "uint256"
				}
			],
			"stateMutability": "view",
			"type": "function"
		},
		{
			"inputs": [],
			"name": "plantSeed",
			"outputs": [
				{
					"internalType": "uint256",
					"name": "",
					"type": "uint256"
				}
			],
			"stateMutability": "payable",
			"type": "function"
		},
		{
			"inputs": [
				{
					"internalType": "uint256",
					"name": "",
					"type": "uint256"
				}
			],
			"name": "plants",
			"outputs": [
				{
					"internalType": "uint256",
					"name": "id",
					"type": "uint256"
				},
				{
					"internalType": "address",
					"name": "owner",
					"type": "address"
				},
				{
					"internalType": "enum LiskGarden.GrowthStage",
					"name": "stage",
					"type": "uint8"
				},
				{
					"internalType": "uint256",
					"name": "plantedDate",
					"type": "uint256"
				},
				{
					"internalType": "uint256",
					"name": "lastWatered",
					"type": "uint256"
				},
				{
					"internalType": "uint8",
					"name": "waterLevel",
					"type": "uint8"
				},
				{
					"internalType": "bool",
					"name": "exists",
					"type": "bool"
				},
				{
					"internalType": "bool",
					"name": "isDead",
					"type": "bool"
				}
			],
			"stateMutability": "view",
			"type": "function"
		},
		{
			"inputs": [
				{
					"internalType": "uint256",
					"name": "plantId",
					"type": "uint256"
				}
			],
			"name": "updatePlantStage",
			"outputs": [],
			"stateMutability": "nonpayable",
			"type": "function"
		},
		{
			"inputs": [
				{
					"internalType": "address",
					"name": "",
					"type": "address"
				},
				{
					"internalType": "uint256",
					"name": "",
					"type": "uint256"
				}
			],
			"name": "userPlants",
			"outputs": [
				{
					"internalType": "uint256",
					"name": "",
					"type": "uint256"
				}
			],
			"stateMutability": "view",
			"type": "function"
		},
		{
			"inputs": [
				{
					"internalType": "uint256",
					"name": "plantId",
					"type": "uint256"
				}
			],
			"name": "waterPlant",
			"outputs": [],
			"stateMutability": "nonpayable",
			"type": "function"
		},
		{
			"inputs": [],
			"name": "withdraw",
			"outputs": [],
			"stateMutability": "nonpayable",
			"type": "function"
		},
		{
			"stateMutability": "payable",
			"type": "receive"
		}
	]
}